:020000040000FA
:100000000A128A11EE2FFF1B0D2883137F18831706
:100010000008840A0319FF0A080000308A00040857
:10002000840A820700343134323433344134343476
:1000300035343634423437343834393443342A345E
:10004000303423344434533445344E344134493409
:1000500020344B346534793462346F346134723413
:0400600064340034D0
:100BDC00F0308316031386008316031789018312E2
:100BEC000313860108005434653463346C34613467
:100BFC002034203420342034203420342034203449
:100C0C002034203420340034F5007508F40006300C
:100C1C000310F40DFF3E031D0E2E730874077F396D
:100C2C00803E0A128A116E270A128A1108007E0869
:100C3C008A007F0882000A128A111D260A128A1164
:100C4C008000840A04087D0603190034FF0A031986
:100C5C00FE0A212E8316031308118811081288121C
:100C6C000813881383120313881528300A128A116B
:100C7C006E270A128A110C300A128A116E270A1278
:100C8C008A1101300A128A116E270A128A11023057
:100C9C000A128A116E270A128A110800F2008312B6
:100CAC00031308157208F00004300310F00CFF3E1B
:100CBC00031D5B2E7008F100F10E080871060F3948
:100CCC007106880088110D30F000F00B6B2E83122A
:100CDC0003138815081572080F39F000F00E080878
:100CEC0070060F397006880088110D30F000F00B7B
:100CFC007D2E8312031388150800FB007608F9007B
:100D0C007908FA007608F9007908F3007B080A12D2
:100D1C008A110A260A128A11AC2E78088312031340
:100D2C00FF00770884000A128A1103200A128A1124
:100D3C000A128A1154260A128A110130F707031875
:100D4C00F80A0130F9007908FA07AC2E78088312FA
:100D5C000313FF00770884000A128A1103200A1279
:100D6C008A11003A031DBB2EBC2E932EBD2E0800FB
:100D7C0024308400353083120313A0000408A10032
:100D8C001130A2002008840083130008A300A00ADD
:100D9C002108840023088000A10AA20BC82E0A1285
:100DAC008A1130260A128A110A128A11EE250A12A9
:100DBC008A11F6011130F7008030F80000300A1269
:100DCC008A1183260A128A11EB2E0A128A110F2716
:100DDC000A128A1183120313A0002008AB002B08FF
:100DEC00031DF92EFA2EFF2E2030A0002008AB0098
:100DFC00FF2EF6012430F7000030F80001300A1203
:100E0C008A1183260A128A11EB2EEB2E0A128A11F2
:100E1C000028F301F50104307502031C162F172F5F
:100E2C00192F6B2F6B2F0130F000750A1F2F031039
:100E3C00F00DFF3E031D1D2F700883120313860057
:100E4C00F40104307402031C2C2F2D2F2F2F602F34
:100E5C00602F1030F000740A352F0310F00DFF3E98
:100E6C00031D332F7008060503193D2F3E2F552FF8
:100E7C007508F00002300310F00DFF3E031D412FEA
:100E8C0001307007F1007408710784000A128A118E
:100E9C000D200A128A11F2007208F300552F01304E
:100EAC00F0007008F40704307402031C5E2F5F2FEF
:100EBC002F2F602F0130F0007008F50704307502F9
:100ECC00031C692F6A2F192F6B2F73086D2F0800C5
:100EDC00F2008312031308117208F000043003109F
:100EEC00F00CFF3E031D752F7008F100F10E080881
:100EFC0071060F3971068800881172030319872F48
:100F0C00882F8F2F02307206031D8D2F8E2F992F55
:100F1C008F2F0330F1009730F000F00B932FF10B73
:100F2C00932F982F9E2F0D30F000F00B9B2F9E2FA0
:100F3C00831203138815F0307205F0002030700610
:100F4C00031DA92FAA2FC42F08117208F00004301A
:100F5C000310F00CFF3E031DAE2F7008F100F10ED4
:100F6C00080871060F397106880088110D30F000E1
:100F7C00F00BBE2F831203138815C42F08117208AF
:100F8C000F39F000F00E080870060F397006880053
:100F9C00881172030319D32FD42FDB2F0230720662
:100FAC00031DD92FDA2FE52FDB2F0330F1009730FB
:100FBC00F000F00BDF2FF10BDF2FE42FEA2F0D30B9
:100FCC00F000F00BE72FEA2F8312031388150800AB
:100FDC0083134630FD000530FE00F930FF0035303C
:100FEC0084000A128A1121260A128A1183010A121C
:040FFC008A11BE2E6A
:04400E00D4E0FFFFFC
:00000001FF
